{
  "_format": "hh-sol-artifact-1",
  "contractName": "ZombieFactory",
  "sourceName": "contracts/zombiefactory.sol",
  "abi": [
    {
      "anonymous": false,
      "inputs": [
        {
          "indexed": false,
          "internalType": "uint256",
          "name": "zombieId",
          "type": "uint256"
        },
        {
          "indexed": false,
          "internalType": "string",
          "name": "name",
          "type": "string"
        },
        {
          "indexed": false,
          "internalType": "uint256",
          "name": "dna",
          "type": "uint256"
        }
      ],
      "name": "NewZombie",
      "type": "event"
    },
    {
      "anonymous": false,
      "inputs": [
        {
          "indexed": true,
          "internalType": "address",
          "name": "previousOwner",
          "type": "address"
        },
        {
          "indexed": true,
          "internalType": "address",
          "name": "newOwner",
          "type": "address"
        }
      ],
      "name": "OwnershipTransferred",
      "type": "event"
    },
    {
      "inputs": [
        {
          "internalType": "string",
          "name": "_name",
          "type": "string"
        }
      ],
      "name": "createRandomZombie",
      "outputs": [],
      "stateMutability": "nonpayable",
      "type": "function"
    },
    {
      "inputs": [],
      "name": "owner",
      "outputs": [
        {
          "internalType": "address",
          "name": "",
          "type": "address"
        }
      ],
      "stateMutability": "view",
      "type": "function"
    },
    {
      "inputs": [
        {
          "internalType": "address",
          "name": "newOwner",
          "type": "address"
        }
      ],
      "name": "transferOwnership",
      "outputs": [],
      "stateMutability": "nonpayable",
      "type": "function"
    },
    {
      "inputs": [
        {
          "internalType": "uint256",
          "name": "",
          "type": "uint256"
        }
      ],
      "name": "zombieToOwner",
      "outputs": [
        {
          "internalType": "address",
          "name": "",
          "type": "address"
        }
      ],
      "stateMutability": "view",
      "type": "function"
    },
    {
      "inputs": [
        {
          "internalType": "uint256",
          "name": "",
          "type": "uint256"
        }
      ],
      "name": "zombies",
      "outputs": [
        {
          "internalType": "string",
          "name": "name",
          "type": "string"
        },
        {
          "internalType": "uint256",
          "name": "dna",
          "type": "uint256"
        },
        {
          "internalType": "uint16",
          "name": "winCount",
          "type": "uint16"
        },
        {
          "internalType": "uint16",
          "name": "lossCount",
          "type": "uint16"
        },
        {
          "internalType": "uint32",
          "name": "level",
          "type": "uint32"
        },
        {
          "internalType": "uint32",
          "name": "readyTime",
          "type": "uint32"
        }
      ],
      "stateMutability": "view",
      "type": "function"
    }
  ],
  "bytecode": "0x60806040526010600155600154600a61001891906101e0565b6002556201518060035534801561002e57600080fd5b50336000806101000a81548173ffffffffffffffffffffffffffffffffffffffff021916908373ffffffffffffffffffffffffffffffffffffffff16021790555061022b565b7f4e487b7100000000000000000000000000000000000000000000000000000000600052601160045260246000fd5b60008160011c9050919050565b6000808291508390505b60018511156100fa578086048111156100d6576100d5610074565b5b60018516156100e55780820291505b80810290506100f3856100a3565b94506100ba565b94509492505050565b60008261011357600190506101cf565b8161012157600090506101cf565b8160018114610137576002811461014157610170565b60019150506101cf565b60ff84111561015357610152610074565b5b8360020a91508482111561016a57610169610074565b5b506101cf565b5060208310610133831016604e8410600b84101617156101a55782820a9050838111156101a05761019f610074565b5b6101cf565b6101b284848460016100b0565b925090508184048111156101c9576101c8610074565b5b81810290505b9392505050565b6000819050919050565b60006101eb826101d6565b91506101f6836101d6565b92506102237fffffffffffffffffffffffffffffffffffffffffffffffffffffffffffffffff8484610103565b905092915050565b610f0e8061023a6000396000f3fe608060405234801561001057600080fd5b50600436106100575760003560e01c80632052465e1461005c578063528b7b8f146100915780637bff0a01146100c15780638da5cb5b146100dd578063f2fde38b146100fb575b600080fd5b6100766004803603810190610071919061071f565b610117565b60405161008896959493929190610827565b60405180910390f35b6100ab60048036038101906100a6919061071f565b610227565b6040516100b891906108d0565b60405180910390f35b6100db60048036038101906100d69190610950565b61025a565b005b6100e5610307565b6040516100f291906108d0565b60405180910390f35b610115600480360381019061011091906109c9565b61032b565b005b6004818154811061012757600080fd5b906000526020600020906003020160009150905080600001805461014a90610a25565b80601f016020809104026020016040519081016040528092919081815260200182805461017690610a25565b80156101c35780601f10610198576101008083540402835291602001916101c3565b820191906000526020600020905b8154815290600101906020018083116101a657829003601f168201915b5050505050908060010154908060020160009054906101000a900461ffff16908060020160029054906101000a900461ffff16908060020160049054906101000a900463ffffffff16908060020160089054906101000a900463ffffffff16905086565b60056020528060005260406000206000915054906101000a900473ffffffffffffffffffffffffffffffffffffffff1681565b6000600660003373ffffffffffffffffffffffffffffffffffffffff1673ffffffffffffffffffffffffffffffffffffffff16815260200190815260200160002054146102a657600080fd5b60006102b28383610479565b905061030283838080601f016020809104026020016040519081016040528093929190818152602001838380828437600081840152601f19601f82011690508083019250505050505050826104b0565b505050565b60008054906101000a900473ffffffffffffffffffffffffffffffffffffffff1681565b60008054906101000a900473ffffffffffffffffffffffffffffffffffffffff1673ffffffffffffffffffffffffffffffffffffffff163373ffffffffffffffffffffffffffffffffffffffff161461038357600080fd5b600073ffffffffffffffffffffffffffffffffffffffff168173ffffffffffffffffffffffffffffffffffffffff16036103bc57600080fd5b8073ffffffffffffffffffffffffffffffffffffffff1660008054906101000a900473ffffffffffffffffffffffffffffffffffffffff1673ffffffffffffffffffffffffffffffffffffffff167f8be0079c531659141344cd1fd0a4f28419497f9722a3daafe3b4186f6b6457e060405160405180910390a3806000806101000a81548173ffffffffffffffffffffffffffffffffffffffff021916908373ffffffffffffffffffffffffffffffffffffffff16021790555050565b600080838360405161048c929190610a95565b604051809103902060001c9050600254816104a79190610add565b91505092915050565b60046040518060c00160405280848152602001838152602001600061ffff168152602001600061ffff168152602001600163ffffffff168152602001600354426104fa9190610b3d565b63ffffffff16815250908060018154018082558091505060019003906000526020600020906003020160009091909190915060008201518160000190816105419190610d4c565b506020820151816001015560408201518160020160006101000a81548161ffff021916908361ffff16021790555060608201518160020160026101000a81548161ffff021916908361ffff16021790555060808201518160020160046101000a81548163ffffffff021916908363ffffffff16021790555060a08201518160020160086101000a81548163ffffffff021916908363ffffffff1602179055505050600060016004805490506105f69190610e1e565b9050336005600083815260200190815260200160002060006101000a81548173ffffffffffffffffffffffffffffffffffffffff021916908373ffffffffffffffffffffffffffffffffffffffff160217905550600660003373ffffffffffffffffffffffffffffffffffffffff1673ffffffffffffffffffffffffffffffffffffffff168152602001908152602001600020600081548092919061069a90610e52565b91905055507f88f026aacbbecc90c18411df4b1185fd8d9be2470f1962f192bf84a27d0704b78184846040516106d293929190610e9a565b60405180910390a1505050565b600080fd5b600080fd5b6000819050919050565b6106fc816106e9565b811461070757600080fd5b50565b600081359050610719816106f3565b92915050565b600060208284031215610735576107346106df565b5b60006107438482850161070a565b91505092915050565b600081519050919050565b600082825260208201905092915050565b60005b8381101561078657808201518184015260208101905061076b565b60008484015250505050565b6000601f19601f8301169050919050565b60006107ae8261074c565b6107b88185610757565b93506107c8818560208601610768565b6107d181610792565b840191505092915050565b6107e5816106e9565b82525050565b600061ffff82169050919050565b610802816107eb565b82525050565b600063ffffffff82169050919050565b61082181610808565b82525050565b600060c082019050818103600083015261084181896107a3565b905061085060208301886107dc565b61085d60408301876107f9565b61086a60608301866107f9565b6108776080830185610818565b61088460a0830184610818565b979650505050505050565b600073ffffffffffffffffffffffffffffffffffffffff82169050919050565b60006108ba8261088f565b9050919050565b6108ca816108af565b82525050565b60006020820190506108e560008301846108c1565b92915050565b600080fd5b600080fd5b600080fd5b60008083601f8401126109105761090f6108eb565b5b8235905067ffffffffffffffff81111561092d5761092c6108f0565b5b602083019150836001820283011115610949576109486108f5565b5b9250929050565b60008060208385031215610967576109666106df565b5b600083013567ffffffffffffffff811115610985576109846106e4565b5b610991858286016108fa565b92509250509250929050565b6109a6816108af565b81146109b157600080fd5b50565b6000813590506109c38161099d565b92915050565b6000602082840312156109df576109de6106df565b5b60006109ed848285016109b4565b91505092915050565b7f4e487b7100000000000000000000000000000000000000000000000000000000600052602260045260246000fd5b60006002820490506001821680610a3d57607f821691505b602082108103610a5057610a4f6109f6565b5b50919050565b600081905092915050565b82818337600083830152505050565b6000610a7c8385610a56565b9350610a89838584610a61565b82840190509392505050565b6000610aa2828486610a70565b91508190509392505050565b7f4e487b7100000000000000000000000000000000000000000000000000000000600052601260045260246000fd5b6000610ae8826106e9565b9150610af3836106e9565b925082610b0357610b02610aae565b5b828206905092915050565b7f4e487b7100000000000000000000000000000000000000000000000000000000600052601160045260246000fd5b6000610b48826106e9565b9150610b53836106e9565b9250828201905080821115610b6b57610b6a610b0e565b5b92915050565b7f4e487b7100000000000000000000000000000000000000000000000000000000600052604160045260246000fd5b60008190508160005260206000209050919050565b60006020601f8301049050919050565b600082821b905092915050565b600060088302610c027fffffffffffffffffffffffffffffffffffffffffffffffffffffffffffffffff82610bc5565b610c0c8683610bc5565b95508019841693508086168417925050509392505050565b6000819050919050565b6000610c49610c44610c3f846106e9565b610c24565b6106e9565b9050919050565b6000819050919050565b610c6383610c2e565b610c77610c6f82610c50565b848454610bd2565b825550505050565b600090565b610c8c610c7f565b610c97818484610c5a565b505050565b5b81811015610cbb57610cb0600082610c84565b600181019050610c9d565b5050565b601f821115610d0057610cd181610ba0565b610cda84610bb5565b81016020851015610ce9578190505b610cfd610cf585610bb5565b830182610c9c565b50505b505050565b600082821c905092915050565b6000610d2360001984600802610d05565b1980831691505092915050565b6000610d3c8383610d12565b9150826002028217905092915050565b610d558261074c565b67ffffffffffffffff811115610d6e57610d6d610b71565b5b610d788254610a25565b610d83828285610cbf565b600060209050601f831160018114610db65760008415610da4578287015190505b610dae8582610d30565b865550610e16565b601f198416610dc486610ba0565b60005b82811015610dec57848901518255600182019150602085019450602081019050610dc7565b86831015610e095784890151610e05601f891682610d12565b8355505b6001600288020188555050505b505050505050565b6000610e29826106e9565b9150610e34836106e9565b9250828203905081811115610e4c57610e4b610b0e565b5b92915050565b6000610e5d826106e9565b91507fffffffffffffffffffffffffffffffffffffffffffffffffffffffffffffffff8203610e8f57610e8e610b0e565b5b600182019050919050565b6000606082019050610eaf60008301866107dc565b8181036020830152610ec181856107a3565b9050610ed060408301846107dc565b94935050505056fea2646970667358221220b070cc85e6b2ddcbdb1fe493cd38fce99e0b806d40b07e5f95fdd175b9460c6864736f6c634300081c0033",
  "linkReferences": {},
  "deployedLinkReferences": {}
}